{
  "_format": "hh-sol-artifact-1",
  "contractName": "LotteryContract2",
  "sourceName": "contracts/old/LotteryContract2.sol",
  "abi": [
    {
      "inputs": [],
      "stateMutability": "nonpayable",
      "type": "constructor"
    },
    {
      "anonymous": false,
      "inputs": [
        {
          "indexed": true,
          "internalType": "address",
          "name": "buyerAddress",
          "type": "address"
        },
        {
          "indexed": false,
          "internalType": "address",
          "name": "lotteryAddres",
          "type": "address"
        },
        {
          "indexed": false,
          "internalType": "uint256",
          "name": "winningPool",
          "type": "uint256"
        },
        {
          "indexed": false,
          "internalType": "bool",
          "name": "hasWon",
          "type": "bool"
        }
      ],
      "name": "LotteryTicket",
      "type": "event"
    },
    {
      "anonymous": false,
      "inputs": [
        {
          "indexed": true,
          "internalType": "address",
          "name": "previousOwner",
          "type": "address"
        },
        {
          "indexed": true,
          "internalType": "address",
          "name": "newOwner",
          "type": "address"
        }
      ],
      "name": "OwnershipTransferred",
      "type": "event"
    },
    {
      "inputs": [],
      "name": "enter",
      "outputs": [],
      "stateMutability": "payable",
      "type": "function"
    },
    {
      "inputs": [],
      "name": "getRandomNumber",
      "outputs": [
        {
          "internalType": "uint256",
          "name": "",
          "type": "uint256"
        }
      ],
      "stateMutability": "view",
      "type": "function"
    },
    {
      "inputs": [
        {
          "internalType": "uint256",
          "name": "",
          "type": "uint256"
        }
      ],
      "name": "lotteryHistory",
      "outputs": [
        {
          "internalType": "address payable",
          "name": "",
          "type": "address"
        }
      ],
      "stateMutability": "view",
      "type": "function"
    },
    {
      "inputs": [],
      "name": "lotteryId",
      "outputs": [
        {
          "internalType": "uint256",
          "name": "",
          "type": "uint256"
        }
      ],
      "stateMutability": "view",
      "type": "function"
    },
    {
      "inputs": [
        {
          "internalType": "uint256",
          "name": "",
          "type": "uint256"
        }
      ],
      "name": "lotteryPools",
      "outputs": [
        {
          "internalType": "uint256",
          "name": "",
          "type": "uint256"
        }
      ],
      "stateMutability": "view",
      "type": "function"
    },
    {
      "inputs": [],
      "name": "owner",
      "outputs": [
        {
          "internalType": "address",
          "name": "",
          "type": "address"
        }
      ],
      "stateMutability": "view",
      "type": "function"
    },
    {
      "inputs": [
        {
          "internalType": "address",
          "name": "dest",
          "type": "address"
        }
      ],
      "name": "payments",
      "outputs": [
        {
          "internalType": "uint256",
          "name": "",
          "type": "uint256"
        }
      ],
      "stateMutability": "view",
      "type": "function"
    },
    {
      "inputs": [],
      "name": "renounceOwnership",
      "outputs": [],
      "stateMutability": "nonpayable",
      "type": "function"
    },
    {
      "inputs": [
        {
          "internalType": "uint256",
          "name": "_winningProbability",
          "type": "uint256"
        }
      ],
      "name": "setWinningProbability",
      "outputs": [],
      "stateMutability": "nonpayable",
      "type": "function"
    },
    {
      "inputs": [
        {
          "internalType": "uint256",
          "name": "_ticketCost",
          "type": "uint256"
        }
      ],
      "name": "setWinningTicketCost",
      "outputs": [],
      "stateMutability": "nonpayable",
      "type": "function"
    },
    {
      "inputs": [],
      "name": "ticketCost",
      "outputs": [
        {
          "internalType": "uint256",
          "name": "",
          "type": "uint256"
        }
      ],
      "stateMutability": "view",
      "type": "function"
    },
    {
      "inputs": [
        {
          "internalType": "address",
          "name": "newOwner",
          "type": "address"
        }
      ],
      "name": "transferOwnership",
      "outputs": [],
      "stateMutability": "nonpayable",
      "type": "function"
    },
    {
      "inputs": [
        {
          "internalType": "address payable",
          "name": "payee",
          "type": "address"
        }
      ],
      "name": "withdrawPayments",
      "outputs": [],
      "stateMutability": "nonpayable",
      "type": "function"
    }
  ],
  "bytecode": "0x60a060405234801561001057600080fd5b5060405161001d90610179565b604051809103906000f080158015610039573d6000803e3d6000fd5b5073ffffffffffffffffffffffffffffffffffffffff1660808173ffffffffffffffffffffffffffffffffffffffff168152505061008961007e6100ad60201b60201c565b6100b560201b60201c565b600180819055506101f4600281905550670de0b6b3a7640000600381905550610186565b600033905090565b60008060009054906101000a900473ffffffffffffffffffffffffffffffffffffffff169050816000806101000a81548173ffffffffffffffffffffffffffffffffffffffff021916908373ffffffffffffffffffffffffffffffffffffffff1602179055508173ffffffffffffffffffffffffffffffffffffffff168173ffffffffffffffffffffffffffffffffffffffff167f8be0079c531659141344cd1fd0a4f28419497f9722a3daafe3b4186f6b6457e060405160405180910390a35050565b610d168061137583390190565b6080516111c66101af600039600081816103ce0152818161066b0152610a8601526111c66000f3fe6080604052600436106100c25760003560e01c80638da5cb5b1161007f578063e2982c2111610059578063e2982c2114610254578063e580f47b14610291578063e97dcb62146102bc578063f2fde38b146102c6576100c2565b80638da5cb5b146101d5578063cac82e2414610200578063dbdff2c114610229576100c2565b806317865bd0146100c75780631eecd934146100f057806331b3eb941461011b57806344ed3f58146101445780636d6fe23014610181578063715018a6146101be575b600080fd5b3480156100d357600080fd5b506100ee60048036038101906100e99190610b4f565b6102ef565b005b3480156100fc57600080fd5b506101056103c6565b6040516101129190610b8b565b60405180910390f35b34801561012757600080fd5b50610142600480360381019061013d9190610c04565b6103cc565b005b34801561015057600080fd5b5061016b60048036038101906101669190610b4f565b61045a565b6040516101789190610b8b565b60405180910390f35b34801561018d57600080fd5b506101a860048036038101906101a39190610b4f565b610472565b6040516101b59190610c40565b60405180910390f35b3480156101ca57600080fd5b506101d36104a5565b005b3480156101e157600080fd5b506101ea61052d565b6040516101f79190610c7c565b60405180910390f35b34801561020c57600080fd5b5061022760048036038101906102229190610b4f565b610556565b005b34801561023557600080fd5b5061023e610620565b60405161024b9190610b8b565b60405180910390f35b34801561026057600080fd5b5061027b60048036038101906102769190610cc3565b610667565b6040516102889190610b8b565b60405180910390f35b34801561029d57600080fd5b506102a661070a565b6040516102b39190610b8b565b60405180910390f35b6102c4610710565b005b3480156102d257600080fd5b506102ed60048036038101906102e89190610cc3565b6108c0565b005b6102f76109b8565b73ffffffffffffffffffffffffffffffffffffffff1661031561052d565b73ffffffffffffffffffffffffffffffffffffffff161461036b576040517f08c379a000000000000000000000000000000000000000000000000000000000815260040161036290610d4d565b60405180910390fd5b60008111801561037d57506103e88111155b6103bc576040517f08c379a00000000000000000000000000000000000000000000000000000000081526004016103b390610ddf565b60405180910390fd5b8060028190555050565b60035481565b7f000000000000000000000000000000000000000000000000000000000000000073ffffffffffffffffffffffffffffffffffffffff166351cff8d9826040518263ffffffff1660e01b81526004016104259190610c40565b600060405180830381600087803b15801561043f57600080fd5b505af1158015610453573d6000803e3d6000fd5b5050505050565b60056020528060005260406000206000915090505481565b60046020528060005260406000206000915054906101000a900473ffffffffffffffffffffffffffffffffffffffff1681565b6104ad6109b8565b73ffffffffffffffffffffffffffffffffffffffff166104cb61052d565b73ffffffffffffffffffffffffffffffffffffffff1614610521576040517f08c379a000000000000000000000000000000000000000000000000000000000815260040161051890610d4d565b60405180910390fd5b61052b60006109c0565b565b60008060009054906101000a900473ffffffffffffffffffffffffffffffffffffffff16905090565b61055e6109b8565b73ffffffffffffffffffffffffffffffffffffffff1661057c61052d565b73ffffffffffffffffffffffffffffffffffffffff16146105d2576040517f08c379a00000000000000000000000000000000000000000000000000000000081526004016105c990610d4d565b60405180910390fd5b600a811015610616576040517f08c379a000000000000000000000000000000000000000000000000000000000815260040161060d90610e71565b60405180910390fd5b8060038190555050565b60006103e861062d61052d565b4260405160200161063f929190610efa565b6040516020818303038152906040528051906020012060001c6106629190610f55565b905090565b60007f000000000000000000000000000000000000000000000000000000000000000073ffffffffffffffffffffffffffffffffffffffff1663e3a9db1a836040518263ffffffff1660e01b81526004016106c29190610c7c565b602060405180830381865afa1580156106df573d6000803e3d6000fd5b505050506040513d601f19601f820116820180604052508101906107039190610f9b565b9050919050565b60015481565b6003543414610754576040517f08c379a000000000000000000000000000000000000000000000000000000000815260040161074b90611014565b60405180910390fd5b6000479050600254610764610620565b1115610862576107743382610a84565b61077d336103cc565b3360046000600154815260200190815260200160002060006101000a81548173ffffffffffffffffffffffffffffffffffffffff021916908373ffffffffffffffffffffffffffffffffffffffff1602179055508060056000600154815260200190815260200160002081905550600160008154809291906107fe90611063565b91905055503373ffffffffffffffffffffffffffffffffffffffff167fdac880b9dfc72db858297f244f6d33844b030a657dcae7efbeea047271d885fb61084361052d565b836001604051610855939291906110c7565b60405180910390a26108bd565b3373ffffffffffffffffffffffffffffffffffffffff167fdac880b9dfc72db858297f244f6d33844b030a657dcae7efbeea047271d885fb6108a261052d565b8360006040516108b4939291906110c7565b60405180910390a25b50565b6108c86109b8565b73ffffffffffffffffffffffffffffffffffffffff166108e661052d565b73ffffffffffffffffffffffffffffffffffffffff161461093c576040517f08c379a000000000000000000000000000000000000000000000000000000000815260040161093390610d4d565b60405180910390fd5b600073ffffffffffffffffffffffffffffffffffffffff168173ffffffffffffffffffffffffffffffffffffffff1614156109ac576040517f08c379a00000000000000000000000000000000000000000000000000000000081526004016109a390611170565b60405180910390fd5b6109b5816109c0565b50565b600033905090565b60008060009054906101000a900473ffffffffffffffffffffffffffffffffffffffff169050816000806101000a81548173ffffffffffffffffffffffffffffffffffffffff021916908373ffffffffffffffffffffffffffffffffffffffff1602179055508173ffffffffffffffffffffffffffffffffffffffff168173ffffffffffffffffffffffffffffffffffffffff167f8be0079c531659141344cd1fd0a4f28419497f9722a3daafe3b4186f6b6457e060405160405180910390a35050565b7f000000000000000000000000000000000000000000000000000000000000000073ffffffffffffffffffffffffffffffffffffffff1663f340fa0182846040518363ffffffff1660e01b8152600401610ade9190610c7c565b6000604051808303818588803b158015610af757600080fd5b505af1158015610b0b573d6000803e3d6000fd5b50505050505050565b600080fd5b6000819050919050565b610b2c81610b19565b8114610b3757600080fd5b50565b600081359050610b4981610b23565b92915050565b600060208284031215610b6557610b64610b14565b5b6000610b7384828501610b3a565b91505092915050565b610b8581610b19565b82525050565b6000602082019050610ba06000830184610b7c565b92915050565b600073ffffffffffffffffffffffffffffffffffffffff82169050919050565b6000610bd182610ba6565b9050919050565b610be181610bc6565b8114610bec57600080fd5b50565b600081359050610bfe81610bd8565b92915050565b600060208284031215610c1a57610c19610b14565b5b6000610c2884828501610bef565b91505092915050565b610c3a81610bc6565b82525050565b6000602082019050610c556000830184610c31565b92915050565b6000610c6682610ba6565b9050919050565b610c7681610c5b565b82525050565b6000602082019050610c916000830184610c6d565b92915050565b610ca081610c5b565b8114610cab57600080fd5b50565b600081359050610cbd81610c97565b92915050565b600060208284031215610cd957610cd8610b14565b5b6000610ce784828501610cae565b91505092915050565b600082825260208201905092915050565b7f4f776e61626c653a2063616c6c6572206973206e6f7420746865206f776e6572600082015250565b6000610d37602083610cf0565b9150610d4282610d01565b602082019050919050565b60006020820190508181036000830152610d6681610d2a565b9050919050565b7f57696e6e696e672070726f626162696c697479206d757374206265206265747760008201527f65656e2028302c313030305d0000000000000000000000000000000000000000602082015250565b6000610dc9602c83610cf0565b9150610dd482610d6d565b604082019050919050565b60006020820190508181036000830152610df881610dbc565b9050919050565b7f5469636b657420636f7374206d7573742062652067726561746572207468616e60008201527f2031207765690000000000000000000000000000000000000000000000000000602082015250565b6000610e5b602683610cf0565b9150610e6682610dff565b604082019050919050565b60006020820190508181036000830152610e8a81610e4e565b9050919050565b60008160601b9050919050565b6000610ea982610e91565b9050919050565b6000610ebb82610e9e565b9050919050565b610ed3610ece82610c5b565b610eb0565b82525050565b6000819050919050565b610ef4610eef82610b19565b610ed9565b82525050565b6000610f068285610ec2565b601482019150610f168284610ee3565b6020820191508190509392505050565b7f4e487b7100000000000000000000000000000000000000000000000000000000600052601260045260246000fd5b6000610f6082610b19565b9150610f6b83610b19565b925082610f7b57610f7a610f26565b5b828206905092915050565b600081519050610f9581610b23565b92915050565b600060208284031215610fb157610fb0610b14565b5b6000610fbf84828501610f86565b91505092915050565b7f57726f6e67206e756d626572206f662065746865720000000000000000000000600082015250565b6000610ffe601583610cf0565b915061100982610fc8565b602082019050919050565b6000602082019050818103600083015261102d81610ff1565b9050919050565b7f4e487b7100000000000000000000000000000000000000000000000000000000600052601160045260246000fd5b600061106e82610b19565b91507fffffffffffffffffffffffffffffffffffffffffffffffffffffffffffffffff8214156110a1576110a0611034565b5b600182019050919050565b60008115159050919050565b6110c1816110ac565b82525050565b60006060820190506110dc6000830186610c6d565b6110e96020830185610b7c565b6110f660408301846110b8565b949350505050565b7f4f776e61626c653a206e6577206f776e657220697320746865207a65726f206160008201527f6464726573730000000000000000000000000000000000000000000000000000602082015250565b600061115a602683610cf0565b9150611165826110fe565b604082019050919050565b600060208201905081810360008301526111898161114d565b905091905056fea26469706673582212204e50240cde3db6cbccc09b0adf2851b06a078918ffcfeae1217d3f909470477b64736f6c634300080a0033608060405234801561001057600080fd5b5061002d61002261003260201b60201c565b61003a60201b60201c565b6100fe565b600033905090565b60008060009054906101000a900473ffffffffffffffffffffffffffffffffffffffff169050816000806101000a81548173ffffffffffffffffffffffffffffffffffffffff021916908373ffffffffffffffffffffffffffffffffffffffff1602179055508173ffffffffffffffffffffffffffffffffffffffff168173ffffffffffffffffffffffffffffffffffffffff167f8be0079c531659141344cd1fd0a4f28419497f9722a3daafe3b4186f6b6457e060405160405180910390a35050565b610c098061010d6000396000f3fe6080604052600436106100555760003560e01c806351cff8d91461005a578063715018a6146100835780638da5cb5b1461009a578063e3a9db1a146100c5578063f2fde38b14610102578063f340fa011461012b575b600080fd5b34801561006657600080fd5b50610081600480360381019061007c9190610805565b610147565b005b34801561008f57600080fd5b506100986102c7565b005b3480156100a657600080fd5b506100af61034f565b6040516100bc9190610853565b60405180910390f35b3480156100d157600080fd5b506100ec60048036038101906100e7919061089a565b610378565b6040516100f991906108e0565b60405180910390f35b34801561010e57600080fd5b506101296004803603810190610124919061089a565b6103c1565b005b6101456004803603810190610140919061089a565b6104b9565b005b61014f6105e2565b73ffffffffffffffffffffffffffffffffffffffff1661016d61034f565b73ffffffffffffffffffffffffffffffffffffffff16146101c3576040517f08c379a00000000000000000000000000000000000000000000000000000000081526004016101ba90610958565b60405180910390fd5b6000600160008373ffffffffffffffffffffffffffffffffffffffff1673ffffffffffffffffffffffffffffffffffffffff1681526020019081526020016000205490506000600160008473ffffffffffffffffffffffffffffffffffffffff1673ffffffffffffffffffffffffffffffffffffffff16815260200190815260200160002081905550610275818373ffffffffffffffffffffffffffffffffffffffff166105ea90919063ffffffff16565b8173ffffffffffffffffffffffffffffffffffffffff167f7084f5476618d8e60b11ef0d7d3f06914655adb8793e28ff7f018d4c76d505d5826040516102bb91906108e0565b60405180910390a25050565b6102cf6105e2565b73ffffffffffffffffffffffffffffffffffffffff166102ed61034f565b73ffffffffffffffffffffffffffffffffffffffff1614610343576040517f08c379a000000000000000000000000000000000000000000000000000000000815260040161033a90610958565b60405180910390fd5b61034d60006106de565b565b60008060009054906101000a900473ffffffffffffffffffffffffffffffffffffffff16905090565b6000600160008373ffffffffffffffffffffffffffffffffffffffff1673ffffffffffffffffffffffffffffffffffffffff168152602001908152602001600020549050919050565b6103c96105e2565b73ffffffffffffffffffffffffffffffffffffffff166103e761034f565b73ffffffffffffffffffffffffffffffffffffffff161461043d576040517f08c379a000000000000000000000000000000000000000000000000000000000815260040161043490610958565b60405180910390fd5b600073ffffffffffffffffffffffffffffffffffffffff168173ffffffffffffffffffffffffffffffffffffffff1614156104ad576040517f08c379a00000000000000000000000000000000000000000000000000000000081526004016104a4906109ea565b60405180910390fd5b6104b6816106de565b50565b6104c16105e2565b73ffffffffffffffffffffffffffffffffffffffff166104df61034f565b73ffffffffffffffffffffffffffffffffffffffff1614610535576040517f08c379a000000000000000000000000000000000000000000000000000000000815260040161052c90610958565b60405180910390fd5b600034905080600160008473ffffffffffffffffffffffffffffffffffffffff1673ffffffffffffffffffffffffffffffffffffffff16815260200190815260200160002060008282546105899190610a39565b925050819055508173ffffffffffffffffffffffffffffffffffffffff167f2da466a7b24304f47e87fa2e1e5a81b9831ce54fec19055ce277ca2f39ba42c4826040516105d691906108e0565b60405180910390a25050565b600033905090565b8047101561062d576040517f08c379a000000000000000000000000000000000000000000000000000000000815260040161062490610adb565b60405180910390fd5b60008273ffffffffffffffffffffffffffffffffffffffff168260405161065390610b2c565b60006040518083038185875af1925050503d8060008114610690576040519150601f19603f3d011682016040523d82523d6000602084013e610695565b606091505b50509050806106d9576040517f08c379a00000000000000000000000000000000000000000000000000000000081526004016106d090610bb3565b60405180910390fd5b505050565b60008060009054906101000a900473ffffffffffffffffffffffffffffffffffffffff169050816000806101000a81548173ffffffffffffffffffffffffffffffffffffffff021916908373ffffffffffffffffffffffffffffffffffffffff1602179055508173ffffffffffffffffffffffffffffffffffffffff168173ffffffffffffffffffffffffffffffffffffffff167f8be0079c531659141344cd1fd0a4f28419497f9722a3daafe3b4186f6b6457e060405160405180910390a35050565b600080fd5b600073ffffffffffffffffffffffffffffffffffffffff82169050919050565b60006107d2826107a7565b9050919050565b6107e2816107c7565b81146107ed57600080fd5b50565b6000813590506107ff816107d9565b92915050565b60006020828403121561081b5761081a6107a2565b5b6000610829848285016107f0565b91505092915050565b600061083d826107a7565b9050919050565b61084d81610832565b82525050565b60006020820190506108686000830184610844565b92915050565b61087781610832565b811461088257600080fd5b50565b6000813590506108948161086e565b92915050565b6000602082840312156108b0576108af6107a2565b5b60006108be84828501610885565b91505092915050565b6000819050919050565b6108da816108c7565b82525050565b60006020820190506108f560008301846108d1565b92915050565b600082825260208201905092915050565b7f4f776e61626c653a2063616c6c6572206973206e6f7420746865206f776e6572600082015250565b60006109426020836108fb565b915061094d8261090c565b602082019050919050565b6000602082019050818103600083015261097181610935565b9050919050565b7f4f776e61626c653a206e6577206f776e657220697320746865207a65726f206160008201527f6464726573730000000000000000000000000000000000000000000000000000602082015250565b60006109d46026836108fb565b91506109df82610978565b604082019050919050565b60006020820190508181036000830152610a03816109c7565b9050919050565b7f4e487b7100000000000000000000000000000000000000000000000000000000600052601160045260246000fd5b6000610a44826108c7565b9150610a4f836108c7565b9250827fffffffffffffffffffffffffffffffffffffffffffffffffffffffffffffffff03821115610a8457610a83610a0a565b5b828201905092915050565b7f416464726573733a20696e73756666696369656e742062616c616e6365000000600082015250565b6000610ac5601d836108fb565b9150610ad082610a8f565b602082019050919050565b60006020820190508181036000830152610af481610ab8565b9050919050565b600081905092915050565b50565b6000610b16600083610afb565b9150610b2182610b06565b600082019050919050565b6000610b3782610b09565b9150819050919050565b7f416464726573733a20756e61626c6520746f2073656e642076616c75652c207260008201527f6563697069656e74206d61792068617665207265766572746564000000000000602082015250565b6000610b9d603a836108fb565b9150610ba882610b41565b604082019050919050565b60006020820190508181036000830152610bcc81610b90565b905091905056fea26469706673582212201c196bb56e9accd3b6368d3179b90a5c85d8bae67a1b79441ecd1b45f120479d64736f6c634300080a0033",
  "linkReferences": {},
  "deployedLinkReferences": {}
}