{
  "_format": "hh-sol-artifact-1",
  "contractName": "LotteryContract3",
  "sourceName": "contracts/LotteryContract3.sol",
  "abi": [
    {
      "inputs": [],
      "stateMutability": "nonpayable",
      "type": "constructor"
    },
    {
      "anonymous": false,
      "inputs": [
        {
          "indexed": true,
          "internalType": "address",
          "name": "buyerAddress",
          "type": "address"
        },
        {
          "indexed": false,
          "internalType": "uint256",
          "name": "winningPool",
          "type": "uint256"
        },
        {
          "indexed": false,
          "internalType": "bool",
          "name": "hasWon",
          "type": "bool"
        }
      ],
      "name": "LotteryTicket",
      "type": "event"
    },
    {
      "anonymous": false,
      "inputs": [
        {
          "indexed": true,
          "internalType": "address",
          "name": "previousOwner",
          "type": "address"
        },
        {
          "indexed": true,
          "internalType": "address",
          "name": "newOwner",
          "type": "address"
        }
      ],
      "name": "OwnershipTransferred",
      "type": "event"
    },
    {
      "inputs": [],
      "name": "enter",
      "outputs": [],
      "stateMutability": "payable",
      "type": "function"
    },
    {
      "inputs": [],
      "name": "getAllPools",
      "outputs": [
        {
          "internalType": "uint256[]",
          "name": "",
          "type": "uint256[]"
        }
      ],
      "stateMutability": "view",
      "type": "function"
    },
    {
      "inputs": [],
      "name": "getAllWinningAddresses",
      "outputs": [
        {
          "internalType": "address[]",
          "name": "",
          "type": "address[]"
        }
      ],
      "stateMutability": "view",
      "type": "function"
    },
    {
      "inputs": [],
      "name": "getRandomNumber",
      "outputs": [
        {
          "internalType": "uint256",
          "name": "",
          "type": "uint256"
        }
      ],
      "stateMutability": "view",
      "type": "function"
    },
    {
      "inputs": [
        {
          "internalType": "uint256",
          "name": "",
          "type": "uint256"
        }
      ],
      "name": "lotteryHistory",
      "outputs": [
        {
          "internalType": "address payable",
          "name": "",
          "type": "address"
        }
      ],
      "stateMutability": "view",
      "type": "function"
    },
    {
      "inputs": [],
      "name": "lotteryId",
      "outputs": [
        {
          "internalType": "uint256",
          "name": "",
          "type": "uint256"
        }
      ],
      "stateMutability": "view",
      "type": "function"
    },
    {
      "inputs": [
        {
          "internalType": "uint256",
          "name": "",
          "type": "uint256"
        }
      ],
      "name": "lotteryPools",
      "outputs": [
        {
          "internalType": "uint256",
          "name": "",
          "type": "uint256"
        }
      ],
      "stateMutability": "view",
      "type": "function"
    },
    {
      "inputs": [],
      "name": "owner",
      "outputs": [
        {
          "internalType": "address",
          "name": "",
          "type": "address"
        }
      ],
      "stateMutability": "view",
      "type": "function"
    },
    {
      "inputs": [
        {
          "internalType": "address",
          "name": "dest",
          "type": "address"
        }
      ],
      "name": "payments",
      "outputs": [
        {
          "internalType": "uint256",
          "name": "",
          "type": "uint256"
        }
      ],
      "stateMutability": "view",
      "type": "function"
    },
    {
      "inputs": [],
      "name": "renounceOwnership",
      "outputs": [],
      "stateMutability": "nonpayable",
      "type": "function"
    },
    {
      "inputs": [
        {
          "internalType": "uint256",
          "name": "_winningProbability",
          "type": "uint256"
        }
      ],
      "name": "setWinningProbability",
      "outputs": [],
      "stateMutability": "nonpayable",
      "type": "function"
    },
    {
      "inputs": [
        {
          "internalType": "uint256",
          "name": "_ticketCost",
          "type": "uint256"
        }
      ],
      "name": "setWinningTicketCost",
      "outputs": [],
      "stateMutability": "nonpayable",
      "type": "function"
    },
    {
      "inputs": [],
      "name": "ticketCost",
      "outputs": [
        {
          "internalType": "uint256",
          "name": "",
          "type": "uint256"
        }
      ],
      "stateMutability": "view",
      "type": "function"
    },
    {
      "inputs": [
        {
          "internalType": "address",
          "name": "newOwner",
          "type": "address"
        }
      ],
      "name": "transferOwnership",
      "outputs": [],
      "stateMutability": "nonpayable",
      "type": "function"
    },
    {
      "inputs": [
        {
          "internalType": "address payable",
          "name": "payee",
          "type": "address"
        }
      ],
      "name": "withdrawPayments",
      "outputs": [],
      "stateMutability": "nonpayable",
      "type": "function"
    }
  ],
  "bytecode": "0x60a060405234801561001057600080fd5b5060405161001d9061017a565b604051809103906000f080158015610039573d6000803e3d6000fd5b5073ffffffffffffffffffffffffffffffffffffffff1660808173ffffffffffffffffffffffffffffffffffffffff168152505061008961007e6100ae60201b60201c565b6100b660201b60201c565b60006001819055506101f4600281905550670de0b6b3a7640000600381905550610188565b600033905090565b60008060009054906101000a900473ffffffffffffffffffffffffffffffffffffffff169050816000806101000a81548173ffffffffffffffffffffffffffffffffffffffff021916908373ffffffffffffffffffffffffffffffffffffffff1602179055508173ffffffffffffffffffffffffffffffffffffffff168173ffffffffffffffffffffffffffffffffffffffff167f8be0079c531659141344cd1fd0a4f28419497f9722a3daafe3b4186f6b6457e060405160405180910390a35050565b610d16806200179883390190565b6080516115e6620001b26000396000818161044a0152818161088d0152610c9601526115e66000f3fe6080604052600436106100e85760003560e01c806397f460441161008a578063e2982c2111610059578063e2982c21146102d0578063e580f47b1461030d578063e97dcb6214610338578063f2fde38b14610342576100e8565b806397f4604414610226578063cac82e2414610251578063d88ff1f41461027a578063dbdff2c1146102a5576100e8565b806344ed3f58116100c657806344ed3f581461016a5780636d6fe230146101a7578063715018a6146101e45780638da5cb5b146101fb576100e8565b806317865bd0146100ed5780631eecd9341461011657806331b3eb9414610141575b600080fd5b3480156100f957600080fd5b50610114600480360381019061010f9190610d5f565b61036b565b005b34801561012257600080fd5b5061012b610442565b6040516101389190610d9b565b60405180910390f35b34801561014d57600080fd5b5061016860048036038101906101639190610e14565b610448565b005b34801561017657600080fd5b50610191600480360381019061018c9190610d5f565b6104d6565b60405161019e9190610d9b565b60405180910390f35b3480156101b357600080fd5b506101ce60048036038101906101c99190610d5f565b6104ee565b6040516101db9190610e50565b60405180910390f35b3480156101f057600080fd5b506101f9610521565b005b34801561020757600080fd5b506102106105a9565b60405161021d9190610e8c565b60405180910390f35b34801561023257600080fd5b5061023b6105d2565b6040516102489190610f65565b60405180910390f35b34801561025d57600080fd5b5061027860048036038101906102739190610d5f565b6106cc565b005b34801561028657600080fd5b5061028f610796565b60405161029c9190611045565b60405180910390f35b3480156102b157600080fd5b506102ba610842565b6040516102c79190610d9b565b60405180910390f35b3480156102dc57600080fd5b506102f760048036038101906102f29190611093565b610889565b6040516103049190610d9b565b60405180910390f35b34801561031957600080fd5b5061032261092c565b60405161032f9190610d9b565b60405180910390f35b610340610932565b005b34801561034e57600080fd5b5061036960048036038101906103649190611093565b610ad0565b005b610373610bc8565b73ffffffffffffffffffffffffffffffffffffffff166103916105a9565b73ffffffffffffffffffffffffffffffffffffffff16146103e7576040517f08c379a00000000000000000000000000000000000000000000000000000000081526004016103de9061111d565b60405180910390fd5b6000811180156103f957506103e88111155b610438576040517f08c379a000000000000000000000000000000000000000000000000000000000815260040161042f906111af565b60405180910390fd5b8060028190555050565b60035481565b7f000000000000000000000000000000000000000000000000000000000000000073ffffffffffffffffffffffffffffffffffffffff166351cff8d9826040518263ffffffff1660e01b81526004016104a19190610e50565b600060405180830381600087803b1580156104bb57600080fd5b505af11580156104cf573d6000803e3d6000fd5b5050505050565b60056020528060005260406000206000915090505481565b60046020528060005260406000206000915054906101000a900473ffffffffffffffffffffffffffffffffffffffff1681565b610529610bc8565b73ffffffffffffffffffffffffffffffffffffffff166105476105a9565b73ffffffffffffffffffffffffffffffffffffffff161461059d576040517f08c379a00000000000000000000000000000000000000000000000000000000081526004016105949061111d565b60405180910390fd5b6105a76000610bd0565b565b60008060009054906101000a900473ffffffffffffffffffffffffffffffffffffffff16905090565b6060600060015467ffffffffffffffff8111156105f2576105f16111cf565b5b6040519080825280602002602001820160405280156106205781602001602082028036833780820191505090505b50905060005b6001548110156106c4576004600082815260200190815260200160002060009054906101000a900473ffffffffffffffffffffffffffffffffffffffff16828281518110610677576106766111fe565b5b602002602001019073ffffffffffffffffffffffffffffffffffffffff16908173ffffffffffffffffffffffffffffffffffffffff168152505080806106bc9061125c565b915050610626565b508091505090565b6106d4610bc8565b73ffffffffffffffffffffffffffffffffffffffff166106f26105a9565b73ffffffffffffffffffffffffffffffffffffffff1614610748576040517f08c379a000000000000000000000000000000000000000000000000000000000815260040161073f9061111d565b60405180910390fd5b600a81101561078c576040517f08c379a000000000000000000000000000000000000000000000000000000000815260040161078390611317565b60405180910390fd5b8060038190555050565b6060600060015467ffffffffffffffff8111156107b6576107b56111cf565b5b6040519080825280602002602001820160405280156107e45781602001602082028036833780820191505090505b50905060005b60015481101561083a57600560008281526020019081526020016000205482828151811061081b5761081a6111fe565b5b60200260200101818152505080806108329061125c565b9150506107ea565b508091505090565b60006103e861084f6105a9565b426040516020016108619291906113a0565b6040516020818303038152906040528051906020012060001c61088491906113fb565b905090565b60007f000000000000000000000000000000000000000000000000000000000000000073ffffffffffffffffffffffffffffffffffffffff1663e3a9db1a836040518263ffffffff1660e01b81526004016108e49190610e8c565b602060405180830381865afa158015610901573d6000803e3d6000fd5b505050506040513d601f19601f820116820180604052508101906109259190611441565b9050919050565b60015481565b6003543414610976576040517f08c379a000000000000000000000000000000000000000000000000000000000815260040161096d906114ba565b60405180910390fd5b6000479050600254610986610842565b1115610a7b576109963382610c94565b61099f33610448565b3360046000600154815260200190815260200160002060006101000a81548173ffffffffffffffffffffffffffffffffffffffff021916908373ffffffffffffffffffffffffffffffffffffffff160217905550806005600060015481526020019081526020016000208190555060016000815480929190610a209061125c565b91905055503373ffffffffffffffffffffffffffffffffffffffff167fa9cfd007cdf0b4237871445928826a877f23eae173d8b0e24076675185594d12826001604051610a6e9291906114f5565b60405180910390a2610acd565b3373ffffffffffffffffffffffffffffffffffffffff167fa9cfd007cdf0b4237871445928826a877f23eae173d8b0e24076675185594d12826000604051610ac49291906114f5565b60405180910390a25b50565b610ad8610bc8565b73ffffffffffffffffffffffffffffffffffffffff16610af66105a9565b73ffffffffffffffffffffffffffffffffffffffff1614610b4c576040517f08c379a0000000000000000000000000000000000000000000000000000000008152600401610b439061111d565b60405180910390fd5b600073ffffffffffffffffffffffffffffffffffffffff168173ffffffffffffffffffffffffffffffffffffffff161415610bbc576040517f08c379a0000000000000000000000000000000000000000000000000000000008152600401610bb390611590565b60405180910390fd5b610bc581610bd0565b50565b600033905090565b60008060009054906101000a900473ffffffffffffffffffffffffffffffffffffffff169050816000806101000a81548173ffffffffffffffffffffffffffffffffffffffff021916908373ffffffffffffffffffffffffffffffffffffffff1602179055508173ffffffffffffffffffffffffffffffffffffffff168173ffffffffffffffffffffffffffffffffffffffff167f8be0079c531659141344cd1fd0a4f28419497f9722a3daafe3b4186f6b6457e060405160405180910390a35050565b7f000000000000000000000000000000000000000000000000000000000000000073ffffffffffffffffffffffffffffffffffffffff1663f340fa0182846040518363ffffffff1660e01b8152600401610cee9190610e8c565b6000604051808303818588803b158015610d0757600080fd5b505af1158015610d1b573d6000803e3d6000fd5b50505050505050565b600080fd5b6000819050919050565b610d3c81610d29565b8114610d4757600080fd5b50565b600081359050610d5981610d33565b92915050565b600060208284031215610d7557610d74610d24565b5b6000610d8384828501610d4a565b91505092915050565b610d9581610d29565b82525050565b6000602082019050610db06000830184610d8c565b92915050565b600073ffffffffffffffffffffffffffffffffffffffff82169050919050565b6000610de182610db6565b9050919050565b610df181610dd6565b8114610dfc57600080fd5b50565b600081359050610e0e81610de8565b92915050565b600060208284031215610e2a57610e29610d24565b5b6000610e3884828501610dff565b91505092915050565b610e4a81610dd6565b82525050565b6000602082019050610e656000830184610e41565b92915050565b6000610e7682610db6565b9050919050565b610e8681610e6b565b82525050565b6000602082019050610ea16000830184610e7d565b92915050565b600081519050919050565b600082825260208201905092915050565b6000819050602082019050919050565b610edc81610e6b565b82525050565b6000610eee8383610ed3565b60208301905092915050565b6000602082019050919050565b6000610f1282610ea7565b610f1c8185610eb2565b9350610f2783610ec3565b8060005b83811015610f58578151610f3f8882610ee2565b9750610f4a83610efa565b925050600181019050610f2b565b5085935050505092915050565b60006020820190508181036000830152610f7f8184610f07565b905092915050565b600081519050919050565b600082825260208201905092915050565b6000819050602082019050919050565b610fbc81610d29565b82525050565b6000610fce8383610fb3565b60208301905092915050565b6000602082019050919050565b6000610ff282610f87565b610ffc8185610f92565b935061100783610fa3565b8060005b8381101561103857815161101f8882610fc2565b975061102a83610fda565b92505060018101905061100b565b5085935050505092915050565b6000602082019050818103600083015261105f8184610fe7565b905092915050565b61107081610e6b565b811461107b57600080fd5b50565b60008135905061108d81611067565b92915050565b6000602082840312156110a9576110a8610d24565b5b60006110b78482850161107e565b91505092915050565b600082825260208201905092915050565b7f4f776e61626c653a2063616c6c6572206973206e6f7420746865206f776e6572600082015250565b60006111076020836110c0565b9150611112826110d1565b602082019050919050565b60006020820190508181036000830152611136816110fa565b9050919050565b7f57696e6e696e672070726f626162696c697479206d757374206265206265747760008201527f65656e2028302c313030305d0000000000000000000000000000000000000000602082015250565b6000611199602c836110c0565b91506111a48261113d565b604082019050919050565b600060208201905081810360008301526111c88161118c565b9050919050565b7f4e487b7100000000000000000000000000000000000000000000000000000000600052604160045260246000fd5b7f4e487b7100000000000000000000000000000000000000000000000000000000600052603260045260246000fd5b7f4e487b7100000000000000000000000000000000000000000000000000000000600052601160045260246000fd5b600061126782610d29565b91507fffffffffffffffffffffffffffffffffffffffffffffffffffffffffffffffff82141561129a5761129961122d565b5b600182019050919050565b7f5469636b657420636f7374206d7573742062652067726561746572207468616e60008201527f2031207765690000000000000000000000000000000000000000000000000000602082015250565b60006113016026836110c0565b915061130c826112a5565b604082019050919050565b60006020820190508181036000830152611330816112f4565b9050919050565b60008160601b9050919050565b600061134f82611337565b9050919050565b600061136182611344565b9050919050565b61137961137482610e6b565b611356565b82525050565b6000819050919050565b61139a61139582610d29565b61137f565b82525050565b60006113ac8285611368565b6014820191506113bc8284611389565b6020820191508190509392505050565b7f4e487b7100000000000000000000000000000000000000000000000000000000600052601260045260246000fd5b600061140682610d29565b915061141183610d29565b925082611421576114206113cc565b5b828206905092915050565b60008151905061143b81610d33565b92915050565b60006020828403121561145757611456610d24565b5b60006114658482850161142c565b91505092915050565b7f57726f6e67206e756d626572206f662065746865720000000000000000000000600082015250565b60006114a46015836110c0565b91506114af8261146e565b602082019050919050565b600060208201905081810360008301526114d381611497565b9050919050565b60008115159050919050565b6114ef816114da565b82525050565b600060408201905061150a6000830185610d8c565b61151760208301846114e6565b9392505050565b7f4f776e61626c653a206e6577206f776e657220697320746865207a65726f206160008201527f6464726573730000000000000000000000000000000000000000000000000000602082015250565b600061157a6026836110c0565b91506115858261151e565b604082019050919050565b600060208201905081810360008301526115a98161156d565b905091905056fea26469706673582212203d22ba79a446ff76e82d23bee2afe195b540fa7dfd964e064cf38493fc16859164736f6c634300080a0033608060405234801561001057600080fd5b5061002d61002261003260201b60201c565b61003a60201b60201c565b6100fe565b600033905090565b60008060009054906101000a900473ffffffffffffffffffffffffffffffffffffffff169050816000806101000a81548173ffffffffffffffffffffffffffffffffffffffff021916908373ffffffffffffffffffffffffffffffffffffffff1602179055508173ffffffffffffffffffffffffffffffffffffffff168173ffffffffffffffffffffffffffffffffffffffff167f8be0079c531659141344cd1fd0a4f28419497f9722a3daafe3b4186f6b6457e060405160405180910390a35050565b610c098061010d6000396000f3fe6080604052600436106100555760003560e01c806351cff8d91461005a578063715018a6146100835780638da5cb5b1461009a578063e3a9db1a146100c5578063f2fde38b14610102578063f340fa011461012b575b600080fd5b34801561006657600080fd5b50610081600480360381019061007c9190610805565b610147565b005b34801561008f57600080fd5b506100986102c7565b005b3480156100a657600080fd5b506100af61034f565b6040516100bc9190610853565b60405180910390f35b3480156100d157600080fd5b506100ec60048036038101906100e7919061089a565b610378565b6040516100f991906108e0565b60405180910390f35b34801561010e57600080fd5b506101296004803603810190610124919061089a565b6103c1565b005b6101456004803603810190610140919061089a565b6104b9565b005b61014f6105e2565b73ffffffffffffffffffffffffffffffffffffffff1661016d61034f565b73ffffffffffffffffffffffffffffffffffffffff16146101c3576040517f08c379a00000000000000000000000000000000000000000000000000000000081526004016101ba90610958565b60405180910390fd5b6000600160008373ffffffffffffffffffffffffffffffffffffffff1673ffffffffffffffffffffffffffffffffffffffff1681526020019081526020016000205490506000600160008473ffffffffffffffffffffffffffffffffffffffff1673ffffffffffffffffffffffffffffffffffffffff16815260200190815260200160002081905550610275818373ffffffffffffffffffffffffffffffffffffffff166105ea90919063ffffffff16565b8173ffffffffffffffffffffffffffffffffffffffff167f7084f5476618d8e60b11ef0d7d3f06914655adb8793e28ff7f018d4c76d505d5826040516102bb91906108e0565b60405180910390a25050565b6102cf6105e2565b73ffffffffffffffffffffffffffffffffffffffff166102ed61034f565b73ffffffffffffffffffffffffffffffffffffffff1614610343576040517f08c379a000000000000000000000000000000000000000000000000000000000815260040161033a90610958565b60405180910390fd5b61034d60006106de565b565b60008060009054906101000a900473ffffffffffffffffffffffffffffffffffffffff16905090565b6000600160008373ffffffffffffffffffffffffffffffffffffffff1673ffffffffffffffffffffffffffffffffffffffff168152602001908152602001600020549050919050565b6103c96105e2565b73ffffffffffffffffffffffffffffffffffffffff166103e761034f565b73ffffffffffffffffffffffffffffffffffffffff161461043d576040517f08c379a000000000000000000000000000000000000000000000000000000000815260040161043490610958565b60405180910390fd5b600073ffffffffffffffffffffffffffffffffffffffff168173ffffffffffffffffffffffffffffffffffffffff1614156104ad576040517f08c379a00000000000000000000000000000000000000000000000000000000081526004016104a4906109ea565b60405180910390fd5b6104b6816106de565b50565b6104c16105e2565b73ffffffffffffffffffffffffffffffffffffffff166104df61034f565b73ffffffffffffffffffffffffffffffffffffffff1614610535576040517f08c379a000000000000000000000000000000000000000000000000000000000815260040161052c90610958565b60405180910390fd5b600034905080600160008473ffffffffffffffffffffffffffffffffffffffff1673ffffffffffffffffffffffffffffffffffffffff16815260200190815260200160002060008282546105899190610a39565b925050819055508173ffffffffffffffffffffffffffffffffffffffff167f2da466a7b24304f47e87fa2e1e5a81b9831ce54fec19055ce277ca2f39ba42c4826040516105d691906108e0565b60405180910390a25050565b600033905090565b8047101561062d576040517f08c379a000000000000000000000000000000000000000000000000000000000815260040161062490610adb565b60405180910390fd5b60008273ffffffffffffffffffffffffffffffffffffffff168260405161065390610b2c565b60006040518083038185875af1925050503d8060008114610690576040519150601f19603f3d011682016040523d82523d6000602084013e610695565b606091505b50509050806106d9576040517f08c379a00000000000000000000000000000000000000000000000000000000081526004016106d090610bb3565b60405180910390fd5b505050565b60008060009054906101000a900473ffffffffffffffffffffffffffffffffffffffff169050816000806101000a81548173ffffffffffffffffffffffffffffffffffffffff021916908373ffffffffffffffffffffffffffffffffffffffff1602179055508173ffffffffffffffffffffffffffffffffffffffff168173ffffffffffffffffffffffffffffffffffffffff167f8be0079c531659141344cd1fd0a4f28419497f9722a3daafe3b4186f6b6457e060405160405180910390a35050565b600080fd5b600073ffffffffffffffffffffffffffffffffffffffff82169050919050565b60006107d2826107a7565b9050919050565b6107e2816107c7565b81146107ed57600080fd5b50565b6000813590506107ff816107d9565b92915050565b60006020828403121561081b5761081a6107a2565b5b6000610829848285016107f0565b91505092915050565b600061083d826107a7565b9050919050565b61084d81610832565b82525050565b60006020820190506108686000830184610844565b92915050565b61087781610832565b811461088257600080fd5b50565b6000813590506108948161086e565b92915050565b6000602082840312156108b0576108af6107a2565b5b60006108be84828501610885565b91505092915050565b6000819050919050565b6108da816108c7565b82525050565b60006020820190506108f560008301846108d1565b92915050565b600082825260208201905092915050565b7f4f776e61626c653a2063616c6c6572206973206e6f7420746865206f776e6572600082015250565b60006109426020836108fb565b915061094d8261090c565b602082019050919050565b6000602082019050818103600083015261097181610935565b9050919050565b7f4f776e61626c653a206e6577206f776e657220697320746865207a65726f206160008201527f6464726573730000000000000000000000000000000000000000000000000000602082015250565b60006109d46026836108fb565b91506109df82610978565b604082019050919050565b60006020820190508181036000830152610a03816109c7565b9050919050565b7f4e487b7100000000000000000000000000000000000000000000000000000000600052601160045260246000fd5b6000610a44826108c7565b9150610a4f836108c7565b9250827fffffffffffffffffffffffffffffffffffffffffffffffffffffffffffffffff03821115610a8457610a83610a0a565b5b828201905092915050565b7f416464726573733a20696e73756666696369656e742062616c616e6365000000600082015250565b6000610ac5601d836108fb565b9150610ad082610a8f565b602082019050919050565b60006020820190508181036000830152610af481610ab8565b9050919050565b600081905092915050565b50565b6000610b16600083610afb565b9150610b2182610b06565b600082019050919050565b6000610b3782610b09565b9150819050919050565b7f416464726573733a20756e61626c6520746f2073656e642076616c75652c207260008201527f6563697069656e74206d61792068617665207265766572746564000000000000602082015250565b6000610b9d603a836108fb565b9150610ba882610b41565b604082019050919050565b60006020820190508181036000830152610bcc81610b90565b905091905056fea26469706673582212201c196bb56e9accd3b6368d3179b90a5c85d8bae67a1b79441ecd1b45f120479d64736f6c634300080a0033",
  "linkReferences": {},
  "deployedLinkReferences": {}
}