{
  "_format": "hh-sol-artifact-1",
  "contractName": "LotteryContract4",
  "sourceName": "contracts/LotteryContract4.sol",
  "abi": [
    {
      "inputs": [],
      "stateMutability": "nonpayable",
      "type": "constructor"
    },
    {
      "anonymous": false,
      "inputs": [
        {
          "indexed": true,
          "internalType": "address",
          "name": "buyerAddress",
          "type": "address"
        },
        {
          "indexed": false,
          "internalType": "uint256",
          "name": "winningPool",
          "type": "uint256"
        },
        {
          "indexed": false,
          "internalType": "bool",
          "name": "hasWon",
          "type": "bool"
        }
      ],
      "name": "LotteryTicket",
      "type": "event"
    },
    {
      "anonymous": false,
      "inputs": [
        {
          "indexed": true,
          "internalType": "address",
          "name": "previousOwner",
          "type": "address"
        },
        {
          "indexed": true,
          "internalType": "address",
          "name": "newOwner",
          "type": "address"
        }
      ],
      "name": "OwnershipTransferred",
      "type": "event"
    },
    {
      "stateMutability": "payable",
      "type": "fallback"
    },
    {
      "inputs": [],
      "name": "enter",
      "outputs": [],
      "stateMutability": "payable",
      "type": "function"
    },
    {
      "inputs": [],
      "name": "getAllPools",
      "outputs": [
        {
          "internalType": "uint256[]",
          "name": "",
          "type": "uint256[]"
        }
      ],
      "stateMutability": "view",
      "type": "function"
    },
    {
      "inputs": [],
      "name": "getAllWinningAddresses",
      "outputs": [
        {
          "internalType": "address[]",
          "name": "",
          "type": "address[]"
        }
      ],
      "stateMutability": "view",
      "type": "function"
    },
    {
      "inputs": [
        {
          "internalType": "uint256",
          "name": "",
          "type": "uint256"
        }
      ],
      "name": "lotteryHistory",
      "outputs": [
        {
          "internalType": "address payable",
          "name": "",
          "type": "address"
        }
      ],
      "stateMutability": "view",
      "type": "function"
    },
    {
      "inputs": [],
      "name": "lotteryId",
      "outputs": [
        {
          "internalType": "uint256",
          "name": "",
          "type": "uint256"
        }
      ],
      "stateMutability": "view",
      "type": "function"
    },
    {
      "inputs": [
        {
          "internalType": "uint256",
          "name": "",
          "type": "uint256"
        }
      ],
      "name": "lotteryPools",
      "outputs": [
        {
          "internalType": "uint256",
          "name": "",
          "type": "uint256"
        }
      ],
      "stateMutability": "view",
      "type": "function"
    },
    {
      "inputs": [],
      "name": "owner",
      "outputs": [
        {
          "internalType": "address",
          "name": "",
          "type": "address"
        }
      ],
      "stateMutability": "view",
      "type": "function"
    },
    {
      "inputs": [
        {
          "internalType": "address",
          "name": "dest",
          "type": "address"
        }
      ],
      "name": "payments",
      "outputs": [
        {
          "internalType": "uint256",
          "name": "",
          "type": "uint256"
        }
      ],
      "stateMutability": "view",
      "type": "function"
    },
    {
      "inputs": [],
      "name": "renounceOwnership",
      "outputs": [],
      "stateMutability": "nonpayable",
      "type": "function"
    },
    {
      "inputs": [
        {
          "internalType": "uint256",
          "name": "_winningProbability",
          "type": "uint256"
        }
      ],
      "name": "setWinningProbability",
      "outputs": [],
      "stateMutability": "nonpayable",
      "type": "function"
    },
    {
      "inputs": [
        {
          "internalType": "uint256",
          "name": "_ticketCost",
          "type": "uint256"
        }
      ],
      "name": "setWinningTicketCost",
      "outputs": [],
      "stateMutability": "nonpayable",
      "type": "function"
    },
    {
      "inputs": [],
      "name": "ticketCost",
      "outputs": [
        {
          "internalType": "uint256",
          "name": "",
          "type": "uint256"
        }
      ],
      "stateMutability": "view",
      "type": "function"
    },
    {
      "inputs": [
        {
          "internalType": "address",
          "name": "newOwner",
          "type": "address"
        }
      ],
      "name": "transferOwnership",
      "outputs": [],
      "stateMutability": "nonpayable",
      "type": "function"
    },
    {
      "inputs": [
        {
          "internalType": "address payable",
          "name": "payee",
          "type": "address"
        }
      ],
      "name": "withdrawPayments",
      "outputs": [],
      "stateMutability": "nonpayable",
      "type": "function"
    },
    {
      "stateMutability": "payable",
      "type": "receive"
    }
  ],
  "bytecode": "0x60a060405234801561001057600080fd5b5060405161001d9061017a565b604051809103906000f080158015610039573d6000803e3d6000fd5b5073ffffffffffffffffffffffffffffffffffffffff1660808173ffffffffffffffffffffffffffffffffffffffff168152505061008961007e6100ae60201b60201c565b6100b660201b60201c565b60006001819055506101f4600281905550670de0b6b3a7640000600381905550610188565b600033905090565b60008060009054906101000a900473ffffffffffffffffffffffffffffffffffffffff169050816000806101000a81548173ffffffffffffffffffffffffffffffffffffffff021916908373ffffffffffffffffffffffffffffffffffffffff1602179055508173ffffffffffffffffffffffffffffffffffffffff168173ffffffffffffffffffffffffffffffffffffffff167f8be0079c531659141344cd1fd0a4f28419497f9722a3daafe3b4186f6b6457e060405160405180910390a35050565b610d16806200181783390190565b608051611665620001b2600039600081816105fb015281816109f70152610bdd01526116656000f3fe6080604052600436106100e15760003560e01c806397f460441161007f578063e2982c2111610059578063e2982c21146102e3578063e580f47b14610320578063e97dcb621461034b578063f2fde38b14610355576100f0565b806397f4604414610264578063cac82e241461028f578063d88ff1f4146102b8576100f0565b806344ed3f58116100bb57806344ed3f58146101a85780636d6fe230146101e5578063715018a6146102225780638da5cb5b14610239576100f0565b806317865bd01461012b5780631eecd9341461015457806331b3eb941461017f576100f0565b366100f0576100ee61037e565b005b6040517f08c379a000000000000000000000000000000000000000000000000000000000815260040161012290610d94565b60405180910390fd5b34801561013757600080fd5b50610152600480360381019061014d9190610def565b61051c565b005b34801561016057600080fd5b506101696105f3565b6040516101769190610e2b565b60405180910390f35b34801561018b57600080fd5b506101a660048036038101906101a19190610ea4565b6105f9565b005b3480156101b457600080fd5b506101cf60048036038101906101ca9190610def565b610687565b6040516101dc9190610e2b565b60405180910390f35b3480156101f157600080fd5b5061020c60048036038101906102079190610def565b61069f565b6040516102199190610ee0565b60405180910390f35b34801561022e57600080fd5b506102376106d2565b005b34801561024557600080fd5b5061024e61075a565b60405161025b9190610f1c565b60405180910390f35b34801561027057600080fd5b50610279610783565b6040516102869190610ff5565b60405180910390f35b34801561029b57600080fd5b506102b660048036038101906102b19190610def565b61087d565b005b3480156102c457600080fd5b506102cd610947565b6040516102da91906110d5565b60405180910390f35b3480156102ef57600080fd5b5061030a60048036038101906103059190611123565b6109f3565b6040516103179190610e2b565b60405180910390f35b34801561032c57600080fd5b50610335610a96565b6040516103429190610e2b565b60405180910390f35b61035361037e565b005b34801561036157600080fd5b5061037c60048036038101906103779190611123565b610a9c565b005b60035434146103c2576040517f08c379a00000000000000000000000000000000000000000000000000000000081526004016103b99061119c565b60405180910390fd5b60004790506002546103d2610b94565b11156104c7576103e23382610bdb565b6103eb336105f9565b3360046000600154815260200190815260200160002060006101000a81548173ffffffffffffffffffffffffffffffffffffffff021916908373ffffffffffffffffffffffffffffffffffffffff16021790555080600560006001548152602001908152602001600020819055506001600081548092919061046c906111eb565b91905055503373ffffffffffffffffffffffffffffffffffffffff167fa9cfd007cdf0b4237871445928826a877f23eae173d8b0e24076675185594d128260016040516104ba92919061124f565b60405180910390a2610519565b3373ffffffffffffffffffffffffffffffffffffffff167fa9cfd007cdf0b4237871445928826a877f23eae173d8b0e24076675185594d1282600060405161051092919061124f565b60405180910390a25b50565b610524610c6b565b73ffffffffffffffffffffffffffffffffffffffff1661054261075a565b73ffffffffffffffffffffffffffffffffffffffff1614610598576040517f08c379a000000000000000000000000000000000000000000000000000000000815260040161058f906112c4565b60405180910390fd5b6000811180156105aa57506103e88111155b6105e9576040517f08c379a00000000000000000000000000000000000000000000000000000000081526004016105e090611356565b60405180910390fd5b8060028190555050565b60035481565b7f000000000000000000000000000000000000000000000000000000000000000073ffffffffffffffffffffffffffffffffffffffff166351cff8d9826040518263ffffffff1660e01b81526004016106529190610ee0565b600060405180830381600087803b15801561066c57600080fd5b505af1158015610680573d6000803e3d6000fd5b5050505050565b60056020528060005260406000206000915090505481565b60046020528060005260406000206000915054906101000a900473ffffffffffffffffffffffffffffffffffffffff1681565b6106da610c6b565b73ffffffffffffffffffffffffffffffffffffffff166106f861075a565b73ffffffffffffffffffffffffffffffffffffffff161461074e576040517f08c379a0000000000000000000000000000000000000000000000000000000008152600401610745906112c4565b60405180910390fd5b6107586000610c73565b565b60008060009054906101000a900473ffffffffffffffffffffffffffffffffffffffff16905090565b6060600060015467ffffffffffffffff8111156107a3576107a2611376565b5b6040519080825280602002602001820160405280156107d15781602001602082028036833780820191505090505b50905060005b600154811015610875576004600082815260200190815260200160002060009054906101000a900473ffffffffffffffffffffffffffffffffffffffff16828281518110610828576108276113a5565b5b602002602001019073ffffffffffffffffffffffffffffffffffffffff16908173ffffffffffffffffffffffffffffffffffffffff1681525050808061086d906111eb565b9150506107d7565b508091505090565b610885610c6b565b73ffffffffffffffffffffffffffffffffffffffff166108a361075a565b73ffffffffffffffffffffffffffffffffffffffff16146108f9576040517f08c379a00000000000000000000000000000000000000000000000000000000081526004016108f0906112c4565b60405180910390fd5b600a81101561093d576040517f08c379a000000000000000000000000000000000000000000000000000000000815260040161093490611446565b60405180910390fd5b8060038190555050565b6060600060015467ffffffffffffffff81111561096757610966611376565b5b6040519080825280602002602001820160405280156109955781602001602082028036833780820191505090505b50905060005b6001548110156109eb5760056000828152602001908152602001600020548282815181106109cc576109cb6113a5565b5b60200260200101818152505080806109e3906111eb565b91505061099b565b508091505090565b60007f000000000000000000000000000000000000000000000000000000000000000073ffffffffffffffffffffffffffffffffffffffff1663e3a9db1a836040518263ffffffff1660e01b8152600401610a4e9190610f1c565b602060405180830381865afa158015610a6b573d6000803e3d6000fd5b505050506040513d601f19601f82011682018060405250810190610a8f919061147b565b9050919050565b60015481565b610aa4610c6b565b73ffffffffffffffffffffffffffffffffffffffff16610ac261075a565b73ffffffffffffffffffffffffffffffffffffffff1614610b18576040517f08c379a0000000000000000000000000000000000000000000000000000000008152600401610b0f906112c4565b60405180910390fd5b600073ffffffffffffffffffffffffffffffffffffffff168173ffffffffffffffffffffffffffffffffffffffff161415610b88576040517f08c379a0000000000000000000000000000000000000000000000000000000008152600401610b7f9061151a565b60405180910390fd5b610b9181610c73565b50565b60006103e8610ba161075a565b42604051602001610bb39291906115a3565b6040516020818303038152906040528051906020012060001c610bd691906115fe565b905090565b7f000000000000000000000000000000000000000000000000000000000000000073ffffffffffffffffffffffffffffffffffffffff1663f340fa0182846040518363ffffffff1660e01b8152600401610c359190610f1c565b6000604051808303818588803b158015610c4e57600080fd5b505af1158015610c62573d6000803e3d6000fd5b50505050505050565b600033905090565b60008060009054906101000a900473ffffffffffffffffffffffffffffffffffffffff169050816000806101000a81548173ffffffffffffffffffffffffffffffffffffffff021916908373ffffffffffffffffffffffffffffffffffffffff1602179055508173ffffffffffffffffffffffffffffffffffffffff168173ffffffffffffffffffffffffffffffffffffffff167f8be0079c531659141344cd1fd0a4f28419497f9722a3daafe3b4186f6b6457e060405160405180910390a35050565b600082825260208201905092915050565b7f436f756c646e2774206465636f6465206d73672e646174610000000000000000600082015250565b6000610d7e601883610d37565b9150610d8982610d48565b602082019050919050565b60006020820190508181036000830152610dad81610d71565b9050919050565b600080fd5b6000819050919050565b610dcc81610db9565b8114610dd757600080fd5b50565b600081359050610de981610dc3565b92915050565b600060208284031215610e0557610e04610db4565b5b6000610e1384828501610dda565b91505092915050565b610e2581610db9565b82525050565b6000602082019050610e406000830184610e1c565b92915050565b600073ffffffffffffffffffffffffffffffffffffffff82169050919050565b6000610e7182610e46565b9050919050565b610e8181610e66565b8114610e8c57600080fd5b50565b600081359050610e9e81610e78565b92915050565b600060208284031215610eba57610eb9610db4565b5b6000610ec884828501610e8f565b91505092915050565b610eda81610e66565b82525050565b6000602082019050610ef56000830184610ed1565b92915050565b6000610f0682610e46565b9050919050565b610f1681610efb565b82525050565b6000602082019050610f316000830184610f0d565b92915050565b600081519050919050565b600082825260208201905092915050565b6000819050602082019050919050565b610f6c81610efb565b82525050565b6000610f7e8383610f63565b60208301905092915050565b6000602082019050919050565b6000610fa282610f37565b610fac8185610f42565b9350610fb783610f53565b8060005b83811015610fe8578151610fcf8882610f72565b9750610fda83610f8a565b925050600181019050610fbb565b5085935050505092915050565b6000602082019050818103600083015261100f8184610f97565b905092915050565b600081519050919050565b600082825260208201905092915050565b6000819050602082019050919050565b61104c81610db9565b82525050565b600061105e8383611043565b60208301905092915050565b6000602082019050919050565b600061108282611017565b61108c8185611022565b935061109783611033565b8060005b838110156110c85781516110af8882611052565b97506110ba8361106a565b92505060018101905061109b565b5085935050505092915050565b600060208201905081810360008301526110ef8184611077565b905092915050565b61110081610efb565b811461110b57600080fd5b50565b60008135905061111d816110f7565b92915050565b60006020828403121561113957611138610db4565b5b60006111478482850161110e565b91505092915050565b7f57726f6e67206e756d626572206f662065746865720000000000000000000000600082015250565b6000611186601583610d37565b915061119182611150565b602082019050919050565b600060208201905081810360008301526111b581611179565b9050919050565b7f4e487b7100000000000000000000000000000000000000000000000000000000600052601160045260246000fd5b60006111f682610db9565b91507fffffffffffffffffffffffffffffffffffffffffffffffffffffffffffffffff821415611229576112286111bc565b5b600182019050919050565b60008115159050919050565b61124981611234565b82525050565b60006040820190506112646000830185610e1c565b6112716020830184611240565b9392505050565b7f4f776e61626c653a2063616c6c6572206973206e6f7420746865206f776e6572600082015250565b60006112ae602083610d37565b91506112b982611278565b602082019050919050565b600060208201905081810360008301526112dd816112a1565b9050919050565b7f57696e6e696e672070726f626162696c697479206d757374206265206265747760008201527f65656e2028302c313030305d0000000000000000000000000000000000000000602082015250565b6000611340602c83610d37565b915061134b826112e4565b604082019050919050565b6000602082019050818103600083015261136f81611333565b9050919050565b7f4e487b7100000000000000000000000000000000000000000000000000000000600052604160045260246000fd5b7f4e487b7100000000000000000000000000000000000000000000000000000000600052603260045260246000fd5b7f5469636b657420636f7374206d7573742062652067726561746572207468616e60008201527f2031207765690000000000000000000000000000000000000000000000000000602082015250565b6000611430602683610d37565b915061143b826113d4565b604082019050919050565b6000602082019050818103600083015261145f81611423565b9050919050565b60008151905061147581610dc3565b92915050565b60006020828403121561149157611490610db4565b5b600061149f84828501611466565b91505092915050565b7f4f776e61626c653a206e6577206f776e657220697320746865207a65726f206160008201527f6464726573730000000000000000000000000000000000000000000000000000602082015250565b6000611504602683610d37565b915061150f826114a8565b604082019050919050565b60006020820190508181036000830152611533816114f7565b9050919050565b60008160601b9050919050565b60006115528261153a565b9050919050565b600061156482611547565b9050919050565b61157c61157782610efb565b611559565b82525050565b6000819050919050565b61159d61159882610db9565b611582565b82525050565b60006115af828561156b565b6014820191506115bf828461158c565b6020820191508190509392505050565b7f4e487b7100000000000000000000000000000000000000000000000000000000600052601260045260246000fd5b600061160982610db9565b915061161483610db9565b925082611624576116236115cf565b5b82820690509291505056fea26469706673582212203c45f39dfb5a52f4473d26da8cd4a22f4fdaea2b43c0f8d0736e3bc32395de2964736f6c634300080a0033608060405234801561001057600080fd5b5061002d61002261003260201b60201c565b61003a60201b60201c565b6100fe565b600033905090565b60008060009054906101000a900473ffffffffffffffffffffffffffffffffffffffff169050816000806101000a81548173ffffffffffffffffffffffffffffffffffffffff021916908373ffffffffffffffffffffffffffffffffffffffff1602179055508173ffffffffffffffffffffffffffffffffffffffff168173ffffffffffffffffffffffffffffffffffffffff167f8be0079c531659141344cd1fd0a4f28419497f9722a3daafe3b4186f6b6457e060405160405180910390a35050565b610c098061010d6000396000f3fe6080604052600436106100555760003560e01c806351cff8d91461005a578063715018a6146100835780638da5cb5b1461009a578063e3a9db1a146100c5578063f2fde38b14610102578063f340fa011461012b575b600080fd5b34801561006657600080fd5b50610081600480360381019061007c9190610805565b610147565b005b34801561008f57600080fd5b506100986102c7565b005b3480156100a657600080fd5b506100af61034f565b6040516100bc9190610853565b60405180910390f35b3480156100d157600080fd5b506100ec60048036038101906100e7919061089a565b610378565b6040516100f991906108e0565b60405180910390f35b34801561010e57600080fd5b506101296004803603810190610124919061089a565b6103c1565b005b6101456004803603810190610140919061089a565b6104b9565b005b61014f6105e2565b73ffffffffffffffffffffffffffffffffffffffff1661016d61034f565b73ffffffffffffffffffffffffffffffffffffffff16146101c3576040517f08c379a00000000000000000000000000000000000000000000000000000000081526004016101ba90610958565b60405180910390fd5b6000600160008373ffffffffffffffffffffffffffffffffffffffff1673ffffffffffffffffffffffffffffffffffffffff1681526020019081526020016000205490506000600160008473ffffffffffffffffffffffffffffffffffffffff1673ffffffffffffffffffffffffffffffffffffffff16815260200190815260200160002081905550610275818373ffffffffffffffffffffffffffffffffffffffff166105ea90919063ffffffff16565b8173ffffffffffffffffffffffffffffffffffffffff167f7084f5476618d8e60b11ef0d7d3f06914655adb8793e28ff7f018d4c76d505d5826040516102bb91906108e0565b60405180910390a25050565b6102cf6105e2565b73ffffffffffffffffffffffffffffffffffffffff166102ed61034f565b73ffffffffffffffffffffffffffffffffffffffff1614610343576040517f08c379a000000000000000000000000000000000000000000000000000000000815260040161033a90610958565b60405180910390fd5b61034d60006106de565b565b60008060009054906101000a900473ffffffffffffffffffffffffffffffffffffffff16905090565b6000600160008373ffffffffffffffffffffffffffffffffffffffff1673ffffffffffffffffffffffffffffffffffffffff168152602001908152602001600020549050919050565b6103c96105e2565b73ffffffffffffffffffffffffffffffffffffffff166103e761034f565b73ffffffffffffffffffffffffffffffffffffffff161461043d576040517f08c379a000000000000000000000000000000000000000000000000000000000815260040161043490610958565b60405180910390fd5b600073ffffffffffffffffffffffffffffffffffffffff168173ffffffffffffffffffffffffffffffffffffffff1614156104ad576040517f08c379a00000000000000000000000000000000000000000000000000000000081526004016104a4906109ea565b60405180910390fd5b6104b6816106de565b50565b6104c16105e2565b73ffffffffffffffffffffffffffffffffffffffff166104df61034f565b73ffffffffffffffffffffffffffffffffffffffff1614610535576040517f08c379a000000000000000000000000000000000000000000000000000000000815260040161052c90610958565b60405180910390fd5b600034905080600160008473ffffffffffffffffffffffffffffffffffffffff1673ffffffffffffffffffffffffffffffffffffffff16815260200190815260200160002060008282546105899190610a39565b925050819055508173ffffffffffffffffffffffffffffffffffffffff167f2da466a7b24304f47e87fa2e1e5a81b9831ce54fec19055ce277ca2f39ba42c4826040516105d691906108e0565b60405180910390a25050565b600033905090565b8047101561062d576040517f08c379a000000000000000000000000000000000000000000000000000000000815260040161062490610adb565b60405180910390fd5b60008273ffffffffffffffffffffffffffffffffffffffff168260405161065390610b2c565b60006040518083038185875af1925050503d8060008114610690576040519150601f19603f3d011682016040523d82523d6000602084013e610695565b606091505b50509050806106d9576040517f08c379a00000000000000000000000000000000000000000000000000000000081526004016106d090610bb3565b60405180910390fd5b505050565b60008060009054906101000a900473ffffffffffffffffffffffffffffffffffffffff169050816000806101000a81548173ffffffffffffffffffffffffffffffffffffffff021916908373ffffffffffffffffffffffffffffffffffffffff1602179055508173ffffffffffffffffffffffffffffffffffffffff168173ffffffffffffffffffffffffffffffffffffffff167f8be0079c531659141344cd1fd0a4f28419497f9722a3daafe3b4186f6b6457e060405160405180910390a35050565b600080fd5b600073ffffffffffffffffffffffffffffffffffffffff82169050919050565b60006107d2826107a7565b9050919050565b6107e2816107c7565b81146107ed57600080fd5b50565b6000813590506107ff816107d9565b92915050565b60006020828403121561081b5761081a6107a2565b5b6000610829848285016107f0565b91505092915050565b600061083d826107a7565b9050919050565b61084d81610832565b82525050565b60006020820190506108686000830184610844565b92915050565b61087781610832565b811461088257600080fd5b50565b6000813590506108948161086e565b92915050565b6000602082840312156108b0576108af6107a2565b5b60006108be84828501610885565b91505092915050565b6000819050919050565b6108da816108c7565b82525050565b60006020820190506108f560008301846108d1565b92915050565b600082825260208201905092915050565b7f4f776e61626c653a2063616c6c6572206973206e6f7420746865206f776e6572600082015250565b60006109426020836108fb565b915061094d8261090c565b602082019050919050565b6000602082019050818103600083015261097181610935565b9050919050565b7f4f776e61626c653a206e6577206f776e657220697320746865207a65726f206160008201527f6464726573730000000000000000000000000000000000000000000000000000602082015250565b60006109d46026836108fb565b91506109df82610978565b604082019050919050565b60006020820190508181036000830152610a03816109c7565b9050919050565b7f4e487b7100000000000000000000000000000000000000000000000000000000600052601160045260246000fd5b6000610a44826108c7565b9150610a4f836108c7565b9250827fffffffffffffffffffffffffffffffffffffffffffffffffffffffffffffffff03821115610a8457610a83610a0a565b5b828201905092915050565b7f416464726573733a20696e73756666696369656e742062616c616e6365000000600082015250565b6000610ac5601d836108fb565b9150610ad082610a8f565b602082019050919050565b60006020820190508181036000830152610af481610ab8565b9050919050565b600081905092915050565b50565b6000610b16600083610afb565b9150610b2182610b06565b600082019050919050565b6000610b3782610b09565b9150819050919050565b7f416464726573733a20756e61626c6520746f2073656e642076616c75652c207260008201527f6563697069656e74206d61792068617665207265766572746564000000000000602082015250565b6000610b9d603a836108fb565b9150610ba882610b41565b604082019050919050565b60006020820190508181036000830152610bcc81610b90565b905091905056fea26469706673582212201c196bb56e9accd3b6368d3179b90a5c85d8bae67a1b79441ecd1b45f120479d64736f6c634300080a0033",
  "linkReferences": {},
  "deployedLinkReferences": {}
}